:040000008A11FB2F37
:100BB600831203139F149F18E12DE22DDE2D1E08CC
:100BC600F300831603131E08F2007308F10072087F
:100BD600F0000800F0007008203E840083138001B6
:100BE600840A80017008223E84008001840A800104
:100BF6007008243E84008001840A80010800F60003
:100C06007608243E840083130008F200840A000854
:100C1600F300720873040319112E132E0130142EDB
:100C26000030F400F5017408F0007508F1000800C2
:100C3600F6007608243E840083130008F200840A36
:100C46000008F30010307206730403192B2E2D2EA4
:100C560001302E2E0030F400F5017408F0007508FE
:100C6600F1000800831203179E019F0183160313E8
:100C76000515831203171E15831203131F08C339A4
:100C860008389F00831603131F088F3910389F00FA
:100C9600831203139F171F141F130800F900790806
:100CA6008A111B268A1170087104031D5B2E5C2EA7
:100CB600942E7908223E84008313000883120313BE
:100CC600A00020077907A10021088400770880008A
:100CD600840A780880007908223E84000008A00073
:100CE600840A0008A1002008013EA200210803187A
:100CF600013E003EA3000F302205A400003023056C
:100D0600A5007908223E840024088000840A25086C
:100D160080007908243E840001308007840A031885
:100D2600800A0800FB007D08FA007C08F9007B08B1
:100D36008A1102268A1170087104031DA32EA42E9F
:100D4600E22E7B08203E84008313000883120313DF
:100D5600A00020077B07A100210884000008F900F5
:100D6600840A0008FA007B08203E84000008A000E0
:100D7600840A0008A1002008013EA20021080318E9
:100D8600013E003EA3000F302205A40000302305DB
:100D9600A5007B08203E840024088000840A2508DC
:100DA60080007B08243E8400FF308007840F000803
:100DB6000318000AFF00FF307F07800084037A08CB
:100DC600F8007908F70008008A1135268A112A30BA
:100DD6008A11ED258A118316031307108710071150
:100DE60087120712871107138713061286128613B6
:100DF60006178312031386132A308A111B268A11BB
:100E060070087104031D082F092F1A2F8A11DB257C
:100E16008A11710883120313A7007008A600270819
:100E2600F8002608F7002A308A1151268A11831203
:100E36000313061F1F2F202FFF2E2A308A1102268A
:100E46008A1170087104031D292F2A2FFF2E2A30BC
:100E56008A1195268A11780883120313A900770848
:100E6600A80086172908F1002808F0008A114227F1
:100E76008A11831203138613FF2E8A11002801306C
:100E86007005F2008312031307087206FE39720614
:100E960087007108F3007008F2000310F30CF20CDF
:100EA60072080139F400F40D07087406FD3974065A
:100EB60087007108F3007008F2000310F30CF20CBF
:100EC6000310F30CF20C72080139F400F40DF40D62
:100ED60007087406FB39740687007108F30070086A
:100EE600F2000310F30CF20C0310F30CF20C0310D7
:100EF600F30CF20C72080139F400F40EF40D070835
:100F06007406DF39740687007108F3007008F20072
:100F160004300310F30CF20CFF3E031D8C2F7208F5
:100F26000139F400F40E07087406EF3974068700D9
:100F36007108F3007008F20005300310F30CF20C90
:100F4600FF3E031DA02F72080139F400F40DF40DC5
:100F5600F40D07087406F739740687007108F30064
:100F66007008F20006300310F30CF20CFF3E031D6E
:100F7600B62F72080139F400F40EF40DF40D0708CB
:100F86007406BF39740687007108F3007008F20012
:100F960007300310F30CF20CFF3E031DCC2F720832
:100FA6000139F400F40CF40C070874067F39740652
:100FB600870071080139F200F20E06087206EF3951
:100FC600720686007108F3007008F20009300310FB
:100FD600F30CF20CFF3E031DEA2F72080139F400F0
:100FE600F40EF40D06087406DF3974068600080050
:0A0FF600FC01FD0183018A11E72EC2
:02400E00F4308C
:00000001FF
